:020000000A28CC
:10000800FE00030EF1000A08F20059280B28F70138
:1000180083010E286D202E20831203130508F30098
:100028007308F600061744202130F300F30B1A2852
:100038008312031306130630F5001330F400AD30B5
:10004800F300F30B2528F40B2528F50B25282C287D
:1000580010280A28831603130C122630980019302A
:1000680099009030831203139800831603138C169B
:10007800831203130C128C128B170B179A010800AA
:1000880026308316031398001930990076088312D6
:10009800031399000C1E512852284E288316031367
:1000A800981C5728582852280800831203138C1EBE
:1000B8005E285F2866288B131A08F0007008F7007E
:1000C8008C128B1772088A00710E8300FE0E7E0E4A
:1000D8000900FF30831603138500023086000730BD
:0C00E800831203139F00850186010800AD
:08400000FF3FFF3FFF3FFF3FC0
:02400E00103F61
:00000001FF
